:020000040800F2
:10000000FCFF01200D170000D9170000D9170000D0
:10001000D9170000D9170000D9170000D917000020
:10002000D9170000D9170000D9170000D917000010
:10003000D9170000D9170000D9170000D917000000
:10004000D9170000D9170000D9170000D9170000F0
:10005000D9170000D9170000D9170000D9170000E0
:10006000D9170000D9170000D9170000D9170000D0
:10007000D9170000D9170000D9170000D9170000C0
:10008000D9170000D9170000D9170000D9170000B0
:10009000D9170000D9170000D9170000D9170000A0
:1000A000D9170000D9170000D9170000D917000090
:1000B0003D130000211200002D170000D917000089
:1000C000D9170000D9170000D9170000D917000070
:1000D000D9170000D9170000D9170000D917000060
:1000E000D9170000D9170000D9170000D917000050
:1000F000D9170000D9170000D9170000D917000040
:10010000D9170000D9170000D9170000D91700002F
:10011000D9170000D9170000D9170000B912000044
:10012000D9170000D9170000D9170000D91700000F
:10013000D9170000D9170000D9170000D9170000FF
:10014000D9170000D9170000D9170000D9170000EF
:10015000D9170000D9170000D9170000D9170000DF
:10016000D9170000D9170000D9170000D9170000CF
:10017000D9170000D9170000D9170000D9170000BF
:10018000D9170000D917000081B000F20C021160ED
:1001900000F208021368C3F3000202B9F8E700F2A4
:1001A0000C02126890B201B07047FFFF81B0CDF829
:1001B00000E081B20348FFF7E7FFDDF800E001B09F
:1001C000704700BF0038004081B0CDF800E081B238
:1001D0000348FFF7D9FFDDF800E001B0704700BF2A
:1001E0000030014081B0CDF800E081B20348FFF754
:1001F000CBFFDDF800E001B0704700BF003C0040DD
:1002000081B0CDF800E081B20348FFF7BDFFDDF813
:1002100000E001B0704700BF003C004081B0CDF865
:1002200000E081B20348FFF7AFFFDDF800E001B066
:10023000704700BF0038004081B0CDF800E081B2C7
:100240000348FFF7A1FFDDF800E001B0704700BFF1
:100250000030014081B0CDF800E0034C2468A04795
:10026000DDF800E001B070471C00002081B0CDF83F
:1002700000E0034C2468A047DDF800E001B07047BF
:100280002000002083B0CDF800E0044604F0FF0316
:100290001A09104603F00F029446220A02F00F02D8
:1002A00093461AE02D4A029229E02D4A029226E056
:1002B0002C4A029223E02C4A029220E02B4A02921E
:1002C0001DE02B4A02921AE02A4A029217E02A4ABB
:1002D000029214E0294A029211E00028E2D001289B
:1002E000E3D00228E4D00328E5D00428E6D005288E
:1002F000E7D00628E8D00728E9D00828EAD001226C
:1003000012B202FA0CF2ADF8042002980A46BDF8C7
:10031000041000F0C7FA029A02F22001BCF1070FA4
:1003200008D90A1D1046ACF1080211460191014698
:10033000019800E0604683004FF00F029A40D343DB
:100340000A681A400A6082000BFA02F30A681A432C
:100350000A60DDF800E003B0704700BF0000024013
:100360000004024000080240000C0240001002405D
:100370000014024000180240001C0240002002400D
:1003800081B0CDF800E0002252B20C490A60410071
:1003900089B201F07E0189B241F0800188B2FFF795
:1003A00065FF0020FFF756FF012252B203490A60A1
:1003B000C0B2DDF800E001B0704700BFAC024242BD
:1003C00082B0CDF800E08DF8041000235BB20A4A39
:1003D0001360420092B202F07E0290B2FFF746FF35
:1003E0009DF80400FFF742FF01235BB2024A13604D
:1003F000DDF800E002B07047AC02424281B0002359
:100400000360CB009BB242EA030304689BB244EA58
:1004100003030360051D13141C462B6864F3820359
:100420002B6000F21C0500242B6864F3CB232B60A7
:100430000124036864F38613036001B07047FFFF73
:1004400083B0CDF800E08DF80810C1B28DF804102B
:10045000C8B2FFF795FF9DF804109DF8082040EA08
:100460000202C8B2D1B2FFF7ABFFDDF800E003B083
:100470007047FFFF83B0CDF800E08DF80810C1B2DF
:100480008DF80410C8B2FFF77BFF9DF804109DF8AB
:100490000820D243D2B200EA0202C8B2D1B2FFF7BA
:1004A0008FFFDDF800E003B07047FFFF83B0CDF8A9
:1004B00000E00024A10041180968B1F1FF3F14D009
:1004C00000F23401A300C91809680A46C118096876
:1004D0000190ADF8084008461146FFF7D3FEBDF87D
:1004E00008400198641CA4B2E4E7DDF800E003B022
:1004F0007047FFFF81B0CDF800E01420FFF740FF08
:1005000000F00300C0B218B903211420FFF798FFD0
:10051000DDF800E001B0704789B0CDF800E08DF85B
:100520000C0004918DF814200693099C0994022470
:100530008DF8084000248DF8094000248DF80A4009
:100540000EE012248DF8094010248DF80A4010E0C6
:1005500077248DF8094030248DF80A4009E008E03E
:100560009DF80C400E2CECD09DF80C400C2CEFD0DC
:10057000F5E79DF8094044F08004E1B20220FFF75E
:100580001FFF80210420FFF775FF80210A20FFF75D
:1005900057FF00210120FFF713FF0024ADF80640AC
:1005A0009DF81450BDF80640AC420ED2BDF806507E
:1005B000049C64192478E1B20920FFF701FFBDF81B
:1005C0000640641CADF80640EAE79DF80C100120D7
:1005D000FFF7F6FE9DF80C400C2C03D180210D2076
:1005E000FFF72EFF40F2D074ADF806400420FFF76D
:1005F000C7FE8DF80400BDF80640641EA4B2ADF835
:1006000006406CB19DF8044004F00104E4B23CB92A
:100610009DF80A509DF804402C40E4B204B9E5E787
:1006200080210D20FFF726FFBDF80640002C61D089
:100630000620FFF7A5FE00F01B04E4B2002C56D103
:1006400000248DF808409DF809509DF804402C4086
:10065000E4B204F00104E4B214B101248DF80840BE
:100660009DF80C400C2C41D10A20FFF789FE8DF833
:1006700004000C20FFF784FE00F00704E4B2E0B2AF
:100680004CB19DF80440641E24B2E40024B2251845
:10069000099C258004E09DF80440E500099C258024
:1006A0009DF8044014B901248DF804409DF80440DD
:1006B000102C02D910248DF804400024ADF8064017
:1006C0009DF80450BDF80640AC420FD2BDF806506C
:1006D000069C641908940920FFF752FE089C2070BC
:1006E000BDF80640641CADF80640E9E702E00224CC
:1006F0008DF808409DF80800DDF800E009B070476B
:1007000044F6CE57C0F200077F1EFDD100BF00BFE8
:1007100000BF00BF00BF704781B0CDF800E00F21DF
:100720000120FFF74DFEDDF800E001B07047FFFF4C
:1007300083B0CDF800E08DF8040002910B4C0C4B17
:100740001C600C4C0C4B1C60012464B20B4B1C60F5
:100750001046FFF7ABFE029A9DF804100848FFF719
:100760004DFEDDF800E003B0704700BF1D02000041
:100770001C000020AD010000200000203808474286
:100780000038004081B01E4900EA010108460022FD
:1007900012E001202CE002202AE0042028E00820BA
:1007A00026E0102024E0202022E0402020E08020CD
:1007B0001EE040F200101BE012498842E9D01249C5
:1007C0008842E8D011498842E7D011498842E6D0F2
:1007D00010498842E5D010498842E4D00F49884248
:1007E000E3D00F498842E2D00E498842E1D010465A
:1007F0000D49096841EA00020B490A6001B07047DF
:1008000000FCFFFF0000024000040240000802401C
:10081000000C024000100240001402400018024088
:10082000001C0240002002403038024084B0CDF865
:1008300000E0034600218DF80C10019300210D20EB
:10084000FFF7BEFD019B932119705A1C20211170E6
:100850000DF10A01019302B4022219460C20FFF7A0
:100860005BFE01B0019B8DF80800A8B900200428A8
:1008700009D219180A789DF80C1051408DF80C1007
:10088000411CC8B2F3E719180A789DF80C10914280
:1008900002D002218DF808109DF80800DDF800E074
:1008A00004B0704784B0CDF800E08DB21646864B98
:1008B00000EA03031F461846FFF764FFB5F1FF0F78
:1008C00020D13C68814B04EA03031846804B9E42CA
:1008D00014D145F2555340EA03033B603D1D2C689B
:1008E0006FF0FF0304EA03032B6007F208052C688E
:1008F0004FF6FF7344EA03032B60E1E0422E01D17F
:100900003860DDE0734B9D4213D1714B9E420BD199
:100910004FF055333B603C1D0023236007F2080471
:100920004FF0FF332360CBE0422E02D100233B6027
:10093000C6E006F001030BB103200AE006F008034D
:100940000BB1022005E006F004030BB1012000E02A
:100950000020614B06EA03030BB103210AE006F411
:1009600080630BB1022105E006F400730BB1012195
:1009700000E0002106F020030BB1012200E000227C
:1009800006F480730BB1022305E006F080030BB17F
:10099000012300E0002340F2000A01921FFA85F9CA
:1009A000B046064618460A460199BAF1100F80F083
:1009B00087804FF0010303FA0AF409EA0403A34213
:1009C00040F07B804FEA4A044FF00303A340DC432E
:1009D0003B6823403B604FEA4A0306FA03F43B6856
:1009E00023433B6008F00C033BB307F208054FEAD2
:1009F0004A044FF00303A340DC432B6823402B60E1
:100A000007F208054FEA4A0302FA03F42B6823436E
:100A10002B603D1D1FFA8AF44FF00103A340DC4315
:100A20002B6823402B603D1D1FFA8AF48BB203FA1A
:100A300004F4A4B22B6823432B6007F20C051FFAC1
:100A40008AF35C00A4B24FF00303A340DC432B689D
:100A500023402B6007F20C054FEA4A0300FA03F427
:100A60002B6823432B6008F0080333B308F47003AA
:100A70001B0D8DF80C30BAF1070F05D907F22403CE
:100A80000293AAF1080503E007F2200302935546FA
:100A9000AC004FF00F03A340DC43029B1B6803EA4A
:100AA0000404029B1C609DF80C40AB009C40029B20
:100AB0001B6843EA0404029B1C600AF1010A74E704
:100AC000DDF800E004B0704700FCFFFF0000FFFF0E
:100AD00014000800FFFF00000008080081B004288F
:100AE00006D11949096841F4803217490A6028E0A3
:100AF000052806D11449096841F4003212490A60F8
:100B00001FE0062806D11049096841F480220E49E9
:100B10000A6016E00F2806D10C49096841F002026C
:100B20000A490A600DE010280BD3A0F210046109F5
:100B30008A0007498B1804F01F024FF00101914011
:100B4000196001B0704700BF24ED00E010E000E044
:100B500000E100E081B00B46014618460D4614B294
:100B6000531E1AB224B103782B706D1C401CF6E79B
:100B7000084601B07047FFFF40F20A0109B205487C
:100B80000180002109B204480180002109B2034814
:100B90000180704708000020060000200A000020A5
:100BA00082B0CDF800E00D4611464FF0000201245E
:100BB00024B2AC4024B225B204682C40002C40F290
:100BC000000400D10124E4B25C40C4B101950D469B
:100BD0000199002D05D9FFF793FDFFF791FD6D1EDB
:100BE000F7E704680C40002C40F2000400D1012417
:100BF000E4B25C400CB1FF2000E0104600E010467B
:100C000080B2DDF800E002B07047FFFF84B0CDF89D
:100C100000E00191C1B28DF8081007210D20FFF707
:100C2000CFFB9DF808100198017003AA04B4034695
:100C3000012219460C20FFF76FFC01B0C1B228B9A0
:100C4000BDF80C20102A01D1C8B200E00220DDF866
:100C500000E004B07047FFFF81B0CDF800E0054A26
:100C600040F204310520FFF763FDDDF800E001B03C
:100C7000704700BFE017000081B0CDF800E001210F
:100C800049B211480160FFF747FD8D212A20FFF787
:100C900097FB3E212B20FFF793FB1E212D20FFF712
:100CA0008FFB00212C20FFF78BFB40211520FFF745
:100CB00087FB3D211120FFF783FBFFF71BFCDDF8CD
:100CC00000E001B0704700BFB40242420448B0F9EE
:100CD0000000012840F2000000D1012000B270475E
:100CE0000600002081B0CDF800E0002302220A2196
:100CF0000348FFF755FF00B2DDF800E001B0704790
:100D0000100002400E48B0F9000000B916E040F2B1
:100D1000050109B20B480180022109B2084801808F
:100D2000012109B20848018040F2070109B20748D1
:100D3000018040F21E0109B205480180704700BFE2
:100D400006000020080000200A0000200C000020FF
:100D50000E0000200448B0F90000002840F2000016
:100D600000D1012000B270470600002040F20A01C5
:100D700009B205480180042109B20448018000211C
:100D800009B20348018070470800002006000020D7
:100D90000A00002081B0CDF800E042F600011048C2
:100DA00000F05CF84AF200010E4800F057F844F2F7
:100DB00000010C4800F046F8012149B20A480160E0
:100DC000FFF74AFF002149B207480160012149B2FB
:100DD00006480160FFF750FFDDF800E001B0704702
:100DE0000010024000040240AC024242B4024242FF
:100DF00081B0CDF800E0012149B20D480160002129
:100E000049B20C480160EF210B4801604FF22341C9
:100E10000A48016040F22C00FFF760FE012149B250
:100E20000748016003480160DDF800E001B0704749
:100E30000008474200000042280000402C0000400B
:100E40008001004281B0CDF800E04FF0420289B24B
:100E5000FFF728FDDDF800E001B0704781B0CDF864
:100E600000E0044A89B2FFF71DFDDDF800E001B0A3
:100E7000704700BF1400080081B0CDF800E00121E8
:100E800049B20D480160002149B20C4801600021BF
:100E90000B48016040F600410A48016040F22D0015
:100EA000FFF71CFE012149B20748016003480160B9
:100EB000DDF800E001B070470408474200800042BE
:100EC000280400402C0400408081004281B0CDF80D
:100ED00000E0012149B20D480160002149B20C48EF
:100EE000016000210B48016040F600410A480160A2
:100EF00040F24700FFF7F2FD012149B207480160C7
:100F000003480160DDF800E001B070471408474273
:100F100000800242280400402C04004080810242EC
:100F200086B0CDF800E040F20000ADF8140001A852
:100F300001462620FFF76AFE01A8FFF777FCC6B23C
:100F400001A8052212B201461B48FFF703FE002E3E
:100F50002CD11A480078B0F1FF0F0CD10022052ADD
:100F600009D2164881181448801800780870501C5F
:100F7000C0B2C2B2F3E70022052A0ED20F48801891
:100F800001780D4880180078814203D0012000B21A
:100F9000ADF81400501CC2B2EEE7BDF9140008B160
:100FA000002004E0FFF7E8FD012000E00020DDF86C
:100FB00000E006B0704700BF1400002000000020D1
:100FC00081B0CDF800E0012149B20D480160002157
:100FD00049B20C48016000210B48016041F6000154
:100FE0000A48016040F22E00FFF778FD012149B266
:100FF0000748016003480160DDF800E001B0704778
:101000000808474200000142280800402C08004020
:10101000800101420948B0F9000000B90CE040F23B
:10102000050109B206480180012109B20348018087
:10103000002109B203480180704700BF060000206C
:10104000080000200A00002081B01CF8019B0BF86A
:10105000019BBBEB0A0FF8D101B070470948B0F90A
:10106000000000B90CE040F20A0109B20648018014
:10107000012109B205480180032109B2014801801C
:10108000704700BF06000020080000200A00002072
:101090000448B0F90000032840F2000000D101200C
:1010A00000B270470600002081B00D48006840F093
:1010B00001010B48016000210A48016008480168ED
:1010C0000948014006480160084909480160044890
:1010D00001686FF4802001400148016001B0704751
:1010E0000038024008380240FFFFF6FE10300024AE
:1010F0000438024081B0CDF800E0FFF711FFFFF7A0
:1011000029FE20B900F038F808B9012100E00021DB
:101110001048016000F030F820B900F021F808B95B
:10112000002100E001210C480160FFF7CFFD20B154
:101130000A48006808B1FFF7E5FDFFF70BFE20B194
:10114000FFF7D0FD08B1FFF711FEDDF800E001B0B8
:10115000704700BFB0024242BC0242421802424203
:101160000448B0F90000022840F2000000D101203C
:1011700000B27047060000200448B0F900000428BF
:1011800040F2000000D1012000B2704706000020AC
:1011900081B04FF000094FF0000CBDEB0A0F04DCEA
:1011A000BDEB0B0F01DBD446EA464BF8049BBBEBCF
:1011B0000A0FFAD1BCEB0A0F05DDE246D9F800B000
:1011C0000BF1040BF1E701B07047FFFF81B0CDF8E0
:1011D00000E040F200411048FFF734FE49F2000100
:1011E0000E48FFF73BFE40F240010C48FFF72AFE95
:1011F00040F202010948FFF731FEFFF7CBFDFFF790
:10120000F7FDFFF739FEFFF7DBFEFFF75FFEDDF8C6
:1012100000E001B0704700BF000002400010024033
:1012200081B0CDF800E0002149B21E4801601E489F
:10123000B0F9000040B940F2D07109B21B480180FA
:10124000002109B21A4801801748B0F9000020B304
:101250001748B0F9000000BBFFF71AFFE8B11549C5
:10126000086880F0010008601049B1F90000401ED4
:1012700000B20880002810DC40F2D07109B20B489F
:1012800001800B4BB3F90000421C12B2022109B2DB
:1012900092FBF1F001FB10201880DDF800E001B0B6
:1012A000704700BF008200420A00002012000020A8
:1012B000100000208402424281B0CDF800E00021FD
:1012C00049B2194801601948B0F90000002826D039
:1012D000FFF746FF18B31649B1F90000401E00B2EF
:1012E0000880002811DC40F21E0109B2104801807C
:1012F0001049B1F90000401E00B20880002804DA4D
:1013000040F2070109B20B4801800A48B0F9000019
:10131000002804DC0849086880F001000860DDF856
:1013200000E001B0704700BF008202420A000020C6
:101330000E0000200C0000208402424281B0CDF853
:1013400000E0002149B20E480160FFF709FF18B91B
:10135000FFF712FF00B90FE00A49B1F90000401E83
:1013600000B20880002807DCFFF7FAFE10B1FFF793
:1013700075FE01E0FFF74EFEDDF800E001B07047BA
:10138000000200420800002081B0044904480160C6
:1013900004490548016001B0704700BFC0D4010096
:1013A00024000020030000002800002082B0CDF8B7
:1013B00000E0924A924B934C93489449032840F0A2
:1013C0003C809348814206D99248006840F005016C
:1013D0009048016030E09048814206D98D4800680D
:1013E00040F004018B48016026E08C48814206D918
:1013F0008848006840F00301864801601CE04EF612
:101400006020814206D98348006840F0020181488B
:10141000016011E047F23050814206D97D480068F2
:1014200040F001017B48016006E07A4801686FF0F6
:1014300007000140774801600CE1022840F0468037
:101440007748814206D97348006840F00601714828
:1014500001603AE07048814206D96E48006840F069
:1014600005016C48016030E06E48814206D9694848
:10147000006840F004016748016026E06A48814244
:1014800006D96448006840F00301624801601CE02E
:101490004BF68030814206D95E48006840F0020178
:1014A0005C48016011E045F6C050814206D95948B8
:1014B000006840F001015748016006E055480168A6
:1014C0006FF00700014053480160C3E0012840F07D
:1014D00051805148814206D94E48006840F00701CA
:1014E0004C48016045E05148814206D949480068AE
:1014F00040F00601474801603BE04848814206D978
:101500004448006840F005014248016031E0464827
:10151000814206D93F48006840F004013D4801601F
:1015200027E04DF2F020814206D93A48006840F0A9
:101530000301384801601CE048F6A040814206D90A
:101540003448006840F002013248016011E044F282
:101550005060814206D92F48006840F001012D48B3
:10156000016006E02B4801686FF007000140294840
:1015700001606FE0002840F06D802D48814206D95F
:101580002448006840F007012248016062E02548D5
:10159000814206D91F48006840F006011D480160DD
:1015A00058E02448814206D91A48006840F00501F5
:1015B000184801604EE0B1F57A4F06D91548006829
:1015C00040F004011348016044E04BF68030814252
:1015D00006D91048006840F003010E48016039E068
:1015E000B1F5FA4F06D90B48006840F002010948EE
:1015F00001602FE0B1F57A5F25D91DE08100000080
:10160000100000040000000003000000C0D401002E
:10161000F0490200003C0240C0D40100905F01008C
:10162000803202000077010040190100E0A50100AE
:1016300080B50100803801002D48006840F00101AC
:101640002B48016006E02A4801686FF0070001405E
:1016500027480160012149B22648016026480160FF
:10166000FFF722FD2548036025480460254802EA6B
:1016700000012548016002F0010040B121462248E6
:10168000006800F00200002800D1F8E700E02146E1
:1016900002F4803048B11C48006800F4003000B902
:1016A000F9E701920A46019902E001911146019A77
:1016B00001F0807070B11448006840F080711248E9
:1016C000016011461048006800F0007000B9F9E7A9
:1016D0000A46FFE70A48006800F00C01900000F09D
:1016E0000C00814200D0F5E7DDF800E002B0704761
:1016F000003C024020804742248047420438024098
:1017000008380240FFFF0F0000380240FFF74EFE8E
:1017100000F04CF800F0F2F8FFF736FE00F0A0F809
:10172000FFF754FDFFF7E6FCFCE7FEE781B0CDF8DC
:1017300000E0002149B2184801601848B0F90000E3
:1017400028B31748B0F90000012820D1FFF7A0FC0A
:10175000E8B11449086880F0010008601249B1F945
:101760000000401E00B20880002810DC40F2D0715A
:1017700009B20D4801800A4BB3F90000421C12B2B5
:10178000022109B292FBF1F001FB10201880DDF874
:1017900000E001B0704700BF000201420A000020D3
:1017A00010000020840242421200002081B04EF658
:1017B0008850CEF20000016841F47001016000BF62
:1017C00000BF00BF00BFF1EE100A40F44000E1EEA0
:1017D000100A01B07047FFFF81B0FEE701B070470B
:1017E0001D0500001E0500001F050000FFFFFFFF94
:1017F00000000000000000000000000000000000E9
:1018000000000000000000000000000000000000D8
:101810000000000018100000181000001810000050
:1018200000000000000000000000000000000000B8
:1018300000000000000000000000000000000000A8
:101840000000000000000000000000000000050093
:10185000000007001E000000D007FFFFFFFFFFFF92
:1018600000B5DFF824B0DFF824A0DFF824C0FFF7CC
:10187000EBFBDFF820B0DFF820A0DFF820C0FFF797
:10188000E3FB00BD704700BF000000200500002002
:101890005A18000006000020140000204C18000018
:1018A000FFFFFFFFFFFFFFFFFFFFFFFFFFFFFFFF48
:1018B000FFFFFFFFFFFFFFFFFFFFFFFFFFFFFFFF38
:1018C000FFFFFFFFFFFFFFFFFFFFFFFFFFFFFFFF28
:1018D000FFFFFFFFFFFFFFFFFFFFFFFFFFFFFFFF18
:1018E000FFFFFFFFFFFFFFFFFFFFFFFFFFFFFFFF08
:1018F000FFFFFFFFFFFFFFFFFFFFFFFF00B5DFF868
:1019000010B0DFF810A0FFF743FC00BD704700BF28
:10191000000000202C000020FFFFFFFFFFFFFFFF63
:00000001FF
